:060000000A128A11122809
:10000800FE00030E83120313CE000408CF000A0873
:10001800D0007F08D1000A128A1116290A128A1103
:100028001528E501E601E701E8018317903084000F
:10003800D1300A128A15B9250A128A11831365303C
:10004800FD000D30FE00AA30FF005E3084000A1269
:100058008A11F32083010A128A11AC2E831203132A
:1000680006104308033EC50044080318013E003E3D
:10007800C6004608803AFF0080307F02031D4628EC
:100088001E304502031C6728831203134308033EEE
:10009800C50044080318013E003EC6004608803AE1
:1000A800FF0081307F02031D5B28F53045020318ED
:1000B8006728831203134308033EC3004408031848
:1000C800013E003E6C281E3083120313C30000302B
:1000D800C4004408F7004308F6004408F900430840
:1000E800F80007300A128A11CA270A128A11473003
:1000F8008400760883138000840A77088000840AC5
:1001080078088000840A79088000840A7A088000C8
:100118002E3084008312031347088000840A48089D
:100128008000840A49088000840A4A088000840AFA
:100138004B0880000A128A116622080083160313EE
:10014800A601A31FAE28A209A309A20A0319A30A9C
:10015800A601A60AA11FB528A009A109A00A03198A
:10016800A10A200821040319E228A501A50AA11B58
:10017800C92801300310A00DA10DFF3E031DBE28A4
:100188000130A4002408A507BB2821082302031D69
:10019800CF2820082202031CD7282008A202210801
:1001A800031CA303A30201300310A10CA00CFF3E03
:1001B800031DD8280130A502031DC92826080319E4
:1001C800EA28A209A309A20A0319A30A2308A1007D
:1001D8002208A00008007E088A007F088200EF201D
:1001E8000A128A118000840A04087D060319003463
:1001F800FF0A0319FE0AF3280029FF0001308A00CC
:100208007F08820706290A128A154E2F0A128A15B4
:10021800DE2E0A128A15162F0A128A1132280A129D
:100228008A11FF2F0C1D592A0C1167086806031D37
:100238002629013086061D300A128A113E250A1227
:100248008A11592A053083120313CC004C08F00098
:1002580067080A128A15F1250A128A11903E83123C
:100268000313CD004D08DD000E08CC00CD014C086D
:10027800DB004D08DC000F08CC00CD014C08CD0098
:10028800CC014C08DB070318DC0A4D08DC076608BC
:100298005C02031D512965085B02031C7729D701FD
:1002A8005D08840083170008CC00840A0008CD008C
:1002B8004D085C02031D62294C085B02031C75296A
:1002C8005D0884000008CC00840A0008CD00660898
:1002D8004D02031D712965084C02031C7529D701BD
:1002E800D70A57089929D801D80A5D0884008317C6
:1002F8000008CC00840A0008CD004D085C02031DEC
:1003080087294C085B02031898295D0884000008B7
:10031800CC00840A0008CD0066084D02031D96290A
:1003280065084C02031CD8015808CC00CD014C08C4
:10033800D2004D08D3005208CC004C08D6006708FC
:100348000A128A1174240A128A11831203135D088F
:10035800043E8400831700080319CB295D08840034
:100368000008E500840A0008E6005D08023E8400F3
:100378000008C300840A0008C4005D08043E840025
:1003880000080A128A1101210A128A11D62902309C
:1003980083120313AC000030AD000A128A15CA2577
:1003A8000A128A11053083120313CC004C08F0009E
:1003B80067080A128A15F1250A128A11903E8312DB
:1003C8000313CD004D08DD000E08CC00CD014C080C
:1003D800DB004D08DC000F08CC00CD014C08CD0037
:1003E800CC014C08DB070318DC0A4D08DC0766085B
:1003F8005C02031D012A65085B02031C272AD90138
:100408005D08840083170008CC00840A0008CD002A
:100418004D085C02031D122A4C085B02031C252AA6
:100428005D0884000008CC00840A0008CD00660836
:100438004D02031D212A65084C02031C252AD901F7
:10044800D90A5908492ADA01DA0A5D0884008317AB
:100458000008CC00840A0008CD004D085C02031D8A
:10046800372A4C085B020318482A5D0884000008F4
:10047800CC00840A0008CD0066084D02031D462AF8
:1004880065084C02031CDA015A08CC00CD014C085F
:10049800D4004D08D5005408CC004C08D600680894
:1004A8006706031D5608031DA32983120313510869
:1004B800FF0050088A004F0884004E0E8300FE0E8D
:1004C8007E0E0900053083120313B3003308F000D1
:1004D80068080A128A15F1250A128A11903E8400CA
:1004E800831203132E0883178000840A2F088000C4
:1004F800840A30088000840A31088000840A32089F
:1005080080006808B3003308C1006708680603194B
:100518005E2B41080319972A4108FF3EB800FF30B7
:1005280003180030A32A0B3084000A128A15002011
:100538000A128A11B300B4013308B8003408B900AC
:100548003808B3003308C2000530B3003308F000A0
:1005580042080A128A15F1250A128A11903E83125E
:100568000313B4003408C0004008043E8400831715
:100578000008031DF62A0130AC000030AD000A1255
:100588008A15CA250A128A11F62A83120313420809
:100598000319D52A4208FF3EBA00FF30031800307D
:1005A800E12A0B3084000A128A1500200A128A11E7
:1005B800B300B4013308BA003408BB003A08B300EA
:1005C8003308C2000530B3003308F00042080A12AD
:1005D8008A15F1250A128A11903E83120313B4007A
:1005E8003408C000831203134008B3003308F00036
:1005F8002E300A128A114E270A128A11003A03195C
:10060800672B831203134008043E840083170008F5
:10061800031D162B0030AC00AD000A128A15CA253E
:100628000A128A11053083120313B3003308F0004D
:1006380041080A128A15F1250A128A11903E84008F
:10064800040883120313B4004008B5000530B6004F
:100658003508840083170008B700B50A34088400F9
:1006680037088000B40AB60B2C2B0530B3003308CA
:10067800F00042080A128A15F1250A128A11903EE2
:100688008400831203132E0883178000840A2F081E
:100698008000840A30088000840A31088000840AB7
:1006A800320880004208B3003308C10041086706D9
:1006B800031DC92A2E30F4000030F5000A128A15ED
:1006C8004F260A128A110B3084000A128A1500205C
:1006D8000A128A1183120313B30068083306031938
:1006E8007D2B6808013EBC00003003180130BD00B6
:1006F8007F2BBC01BD013C08B3003308E800670844
:100708006806031D080068080319912B6808FF3E56
:10071800BE00FF30031800309D2B0B3084000A12F6
:100728008A1500200A128A11B300B4013308BE00EA
:100738003408BF003E08B3003308E8000030AC00BE
:10074800AD000A128A15CA25080083160313B600DD
:10075800AE30B0003008B300013083160313B6077B
:10076800FF30360784000A128A1500200A128A11FF
:10077800B0003008B90039080319080025303906D7
:100788000319CD2B39080A128A15E4250A128A1191
:10079800B02B83160313B4010130B607FF303607B8
:1007A80084000A128A1500200A128A11B900003A38
:1007B8000319732C643A0319E52B0D3A0319E52B39
:1007C800B02B3308840083130008B700840A00089C
:1007D800B8000230B0003008B307B81FFC2B033054
:1007E800B0003008B404B709B809B70A0319B80A41
:1007F800B901B90A053039060319232C3908B000A4
:100808003007013E84000A128A1500200A128A1154
:10081800B1000A128A1500200A128A11B2003208A1
:100828003802031D192C31083702031C232C013010
:10083800B0003008B90705303906031D022C34080A
:10084800033903192D2C2D300A128A15E4250A12B2
:100858008A11831603133908B0003008B500FF3039
:1008680083160313B0003008B507350A0319B02BF7
:100878000A30A8000030A9003508B0003007013E52
:1008880084000A128A1500200A128A11A0000A128E
:100898008A1500200A128A11A1003808A300370817
:1008A800A2000A128A15C2270A128A118316031394
:1008B8002108AB002008AA000A128A15AA260A12E3
:1008C8008A11831603132808303EB1003108B90095
:1008D80039080A128A15E4250A128A11332C0800ED
:1008E80083120313C1006808AE002E08B400B301D8
:1008F80041086706031DBC2C0B3084000A128A15B8
:1009080000200A128A11AE0067082E060319942CDB
:100918006708013EBA00003003180130BB00962C6E
:10092800BA01BB013A08AE002E08E700670868065E
:100938000319B02C0530AE002E08F00067080A1223
:100948008A15F1250A128A11903EF4000130F5004B
:100958000A128A154F260800013083120313AC00CF
:100968000030AD000A128A15CA250A128A11B02C65
:10097800831203134108AE002E08B400410868062C
:100988000319242D0B3084000A128A1500200A123C
:100998008A11AE0041082E060319DA2C4108013EDF
:1009A800BC00003003180130BD00DC2CBC01BD01C7
:1009B8003C08AE002E08C0000530AE002E08F0003E
:1009C80040080A128A15F1250A128A11903E8400FD
:1009D800353083120313AF000530B00083170008C9
:1009E800B100040AB2002F08840083133108800084
:1009F800040AAF0032088400B00BF22C0530AE00B8
:100A08002E08F00041080A128A15F1250A128A11E7
:100A1800903E840083120313350883178000840AEC
:100A280036088000840A37088000840A3808800065
:100A3800840A390880004008AE002E08C100C22C84
:100A4800680803192E2D6808FF3EBE00FF30031802
:100A58000030382D0B3084000A128A150020AE00B1
:100A6800AF012E08BE002F08BF003E08AE002E08BA
:100A7800E800080083120313A5002030A200220812
:100A8800A600013083120313A507FF302507840051
:100A98000A128A1500200A128A11A2002208AB0045
:100AA8002B080319080025302B060319622D2B0883
:100AB8000A128A15B1250A128A11452D83120313C9
:100AC800A7010130A507FF30250784000A128A15FF
:100AD80000200A128A11AB00003A0319062E643A64
:100AE80003197A2D0D3A03197A2D452D260884000D
:100AF80083130008A900840A0008AA000230A20093
:100B08002208A607AA1F912D0330A2002208A704D5
:100B1800A909AA09A90A0319AA0AAB01AB0A05304F
:100B28002B060319B82D2B08A2002207013E8400CA
:100B38000A128A1500200A128A11A3000A128A15BD
:100B480000200A128A11A40024082A02031DAE2DCF
:100B580023082902031CB82D0130A2002208AB0784
:100B680005302B06031D972D270803390319C22DBD
:100B78002D300A128A15B1250A128A11831203131D
:100B88002B08A2002208A800FF3083120313A2003A
:100B98002208A807280A0319452D0A30F800003052
:100BA800F9002808A2002207013E84000A128A15CB
:100BB80000200A128A11F0000A128A1500200A126F
:100BC8008A11F1002A08F3002908F2000A128A158E
:100BD80086270A128A117108FB007008FA000A12A7
:100BE8008A1578260A128A117808303E8312031370
:100BF800A3002308AB002B080A128A15B1250A1294
:100C08008A11C82D0800033083160313A000003092
:100C1800A1002808A3002708A2000A128A11A2200E
:100C28000A128A11831603132108A8002008A700B6
:100C38002908031D632E27082804031D342E831258
:100C4800031308110813881188120816081E302E7D
:100C580083120313881708008312031388130800EC
:100C68008316031327032804031D4B2E8312031333
:100C780008120813881188130815081D472E8312B7
:100C88000313881608008312031388120800023021
:100C98008316031327062804031D08008312031371
:100CA80008110812881288130817081F5F2E83126C
:100CB800031388150800831203138811080083168C
:100CC80003132903031D080027082804031D7D2E8C
:100CD8008312031386128810061286100615061D45
:100CE800792E8312031308140800831203130810C3
:100CF80008008316031327032804031D942E831268
:100D0800031306118810061208108616861E902EE8
:100D18008312031386140800831203138610080035
:100D280002308316031327062804031D08008312C4
:100D3800031386120611861008108814881CA82E22
:100D48008312031306160800831203130612080001
:100D58000A128A1517260A128A11831603138801A4
:100D6800BF01C001BF01C0014008803AFF008030C8
:100D78007F02031DC12E0A303F020318FA2E831288
:100D880003130610023083160313BC000430BB00A3
:100D9800BA30BA00BA0BCE2EBB0BCE2EBC0BCE2E61
:100DA8000000831203130614023083160313BC00D9
:100DB8000430BB00BA30BA00BA0BE02EBB0BE02EF1
:100DC800BC0BE02E0000013083160313BF07031885
:100DD800C00A0030C0074008803AFF0080307F0218
:100DE800031DF82E0A303F02031CC32E16300A12C8
:100DF8008A11A9230A128A1183160313C101C20199
:100E0800FF30BD000030BE00831603133D083E04CA
:100E18000319142F0130BD020030031CBE03BE02AB
:100E280000304202643003194102031C1D2FC10126
:100E3800C2010130C1070318C20A0030C2070230DC
:100E4800C1000030C2004208A8004108A700A9015B
:100E5800A90A0A128A1107260A128A11831603138D
:100E68004208A8004108A700A9010A128A1107260A
:100E78000A128A11023083160313BC000430BB0027
:100E8800BA30BA00BA0B462FBB0B462FBC0B462F05
:100E98000000082FF5007508840083130008F1008E
:100EA800840A0008F2008312031366087202031D05
:100EB8005F2F650871020318732F70088400831769
:100EC8000008F100840A0008F20066087202031D97
:100ED8006F2F65087102031C732F0030080070081B
:100EE800840083170008F100840A0008F2006608ED
:100EF8007202031D812F650871020318952F75086A
:100F0800840083130008F100840A0008F2006608D0
:100F18007202031D912F65087102031C952F013081
:100F280008007008840083170008F100840A00088C
:100F3800F2007508840083130008F300840A00088F
:100F4800F40072087402031DAB2F710873020318B2
:100F5800AF2F01300800750884000008F100840AEA
:100F68000008F2007008840083170008F300840A60
:100F78000008F40072087402031DC42F710873027C
:100F88000318C82F0030080000300800831203132C
:100F9800A0006408F1006308F0007708F300760801
:100FA800F2000A128A152E267108F7007008F6005A
:100FB8007608831203136507A10077080318770AD8
:100FC8006607A2007908A4007808A3002008FB009F
:100FD8007B08A5007630840021088000840A220856
:100FE8008000840A23088000840A24088000840A78
:100FF800250880000800080008308A000408840AD0
:1010080082070034013400340A3400346434003474
:10101800E8340334103427340C3445345234523411
:101028004F3452343A34203425346434003448344C
:1010380065346C346C346F34213400342E3400340D
:101B540000340034003400340D3432340034F000E6
:101B6400831203130C1EB22D700899000800640040
:101B74008001840A0406031900340406BA2D83166E
:101B840003130808FC3988000608C93986000800D0
:101B9400831203132D08A1002C08A0000C300A1294
:101BA4008A113E250A128A15D62D831603130717A8
:101BB4008717333099002430980090308312031330
:101BC4009800080083160313A00083120C1EE72D4F
:101BD4008316031320088312031399000800F300EB
:101BE400F201731CF92D7008F1007108F20703105B
:101BF400F00D0310F30C7308031DF32D7208080095
:101C0400FC3083160313A0002008880531308312AA
:101C1400031390000A3097000B08C0388B0083161A
:101C240003130C0804388C000800FE3083160313D9
:101C3400A100210886058312031306140A128A15CB
:101C4400D7250A128A150A128A15C1250A128A157D
:101C54000A128A1502260800F401F501701C382EB8
:101C64007208F4070318F50A7308F5070130031026
:101C7400F20DF30DFF3E031D392E01300310F10C5C
:101C8400F00CFF3E031D402E70087104031D302E1E
:101C94007508F1007408F00008007408750403194D
:101CA400080004307407F60075080318013EF700B5
:101CB400760884008317771C83130008031908002F
:101CC400740884008317751C83130008F600840AC3
:101CD4000008F70077088312031396007408840041
:101CE4008317751C8313000895000800780879048D
:101CF4000319A52EFD01FD0AF91B8C2E01300310DA
:101D0400F80DF90DFF3E031D812E0130FC007C0807
:101D1400FD077E2E79087B02031D922E78087A0235
:101D2400031C9A2E7808FA027908031CFB03FB02B1
:101D340001300310F90CF80CFF3E031D9B2E0130FB
:101D4400FD02031D8C2E7B08F9007A08F8000800B8
:101D540083160313280829040319D92EAD01AD0AEB
:101D6400A91BC02E01300310A80DA90DFF3E031DB1
:101D7400B52E0130AC002C08AD07B22E29082B0279
:101D8400031DC62E28082A02031CCE2E2808AA02E8
:101D94002908031CAB03AB0201300310A90CA80CE7
:101DA400FF3E031DCF2E0130AD02031DC02E2B08B4
:101DB400A9002A08A8000800831203130810C830D9
:101DC400F6000030F7004408F9004308F800013039
:101DD4000A128A11CA270A128A1545308400760825
:101DE40083138000840A77088000840A78088000BE
:101DF400840A79088000840A7A0880002E308400DE
:101E04008312031345088000840A46088000840A6C
:101E140047088000840A48088000840A4908800032
:101E24000A128A116622080083120313061414305E
:101E3400F6000030F7004408F9004308F8000A30BF
:101E44000A128A11CA270A128A15453084007608B4
:101E540083138000840A77088000840A780880004D
:101E6400840A79088000840A7A0880002E3084006D
:101E74008312031345088000840A46088000840AFC
:101E840047088000840A48088000840A49088000C2
:101E94000A128A11662208008312031308144408E4
:101EA400F7004308F6004408F9004308F80004303A
:101EB4000A128A11CA270A128A1545308400760844
:101EC40083138000840A77088000840A78088000DD
:101ED400840A79088000840A7A0880002E308400FD
:101EE4008312031345088000840A46088000840A8C
:101EF40047088000840A48088000840A4908800052
:101F04000A128A1166220800F501F60170087104AC
:101F14000319BD2FF701F70AF11B9C2F01300310A1
:101F2400F00DF10DFF3E031D912F0130F4007408F4
:101F3400F7078E2F01300310F50DF60DFF3E031D3C
:101F44009D2F71087302031DA92F70087202031CD0
:101F5400B22F7008F2027108031CF303F302751424
:101F640001300310F10CF00CFF3E031DB32F0130C0
:101F7400F702031D9C2F7608F1007508F000080095
:101F840083160313A501A601200821040319FB2FBE
:101F9400A701A70AA11BDA2F01300310A00DA10D80
:101FA400FF3E031DCF2F0130A4002408A707CC2F28
:101FB40001300310A50DA60DFF3E031DDB2F2108E4
:101FC4002302031DE72F20082202031CF02F200800
:101FD400A2022108031CA303A30225140130031049
:101FE400A10CA00CFF3E031DF12F0130A702031D1D
:0C1FF400DA2F2608A1002508A000080034
:02400E00BAF7FF
:00000001FF
