:100000000A128A118A2C00308A000408840A8207A6
:100010000034013400340A34003464340034E834E9
:10002000033410342734483465346C346C346F3402
:0A0030002134003425346434003418
:1008E200F000732C831203130C1E782C792C732CBA
:1008F2007A2C7008990008008316031307178717CC
:10090200033099002030980090308312031398002E
:10091200080083133830FD000430FE00AF30FF00C2
:10092200203084000A128A11A0240A128A1183013B
:100932000A128A11E72D7E088A007F0882000A12B5
:100942008A119C240A128A118000840A04087D06F6
:1009520003190034FF0A0319FE0AA02C01340034E3
:1009620004340034023400340834003404340034D3
:10097200103400340834003420340034103400348D
:10098200403400342034003480340034FC01FD0152
:10099200CA2C7D08F801F8077C08F701F707F9016E
:1009A2000A128A1154260A128A117D08F801F807E0
:1009B2007C08F701F707F9010314F90D0A128A11ED
:1009C20054260A128A110730FB007D30FA00FA0B16
:1009D200E82CFB0BE82CCA2CCA2C080079087804F6
:1009E2000319F42CF52C2B2DFD010314FD0D052DFF
:1009F20001300310F80DF90DFF3E031DFA2C0130F2
:100A0200FC007C08FD07052DF91F082D092DF92C86
:100A12000B2D0B2D79087B02031D112D78087A020C
:100A2200031C142D152D1C2D7808FA027908031CBD
:100A3200FB03FB021C2D01300310F90CF80CFF3EE6
:100A4200031D1D2D0130FD02031D282D292D0B2D07
:100A52002B2D2B2D7B08F901F9077A08F801F807ED
:100A6200322D0800F501F6017108700403193A2DC0
:100A72003B2D792DF7010314F70D4B2D0130031097
:100A8200F00DF10DFF3E031D402D0130F4007408FE
:100A9200F7074B2DF11F4E2D4F2D3F2D512D512D6F
:100AA20001300310F50DF60DFF3E031D522D7108A6
:100AB2007302031D5E2D70087202031C612D622DEC
:100AC2006A2D7008F2027108031CF303F302751415
:100AD2006A2D01300310F10CF00CFF3E031D6B2D4B
:100AE2000130F702031D762D772D512D792D792DA9
:100AF2007608F101F1077508F001F007802D080072
:100B0200F601F31F852D862D8F2DF209F309F20AC6
:100B12000319F30AF6010314F60D8F2DF11F922D1E
:100B2200932D992DF009F109F00A0319F10A992D73
:100B32007108700403199E2D9F2DD52DF501031404
:100B4200F50DAF2D01300310F00DF10DFF3E031D29
:100B5200A42D0130F4007408F507AF2DF11FB22D5A
:100B6200B32DA32DB52DB52D71087302031DBB2D19
:100B720070087202031CBE2DBF2DC62D7008F20232
:100B82007108031CF303F302C62D01300310F10CAC
:100B9200F00CFF3E031DC72D0130F502031DD22DBF
:100BA200D32DB52DD52DD52D7608031DD92DDF2DAD
:100BB200F209F309F20A0319F30ADF2D7308F101AE
:100BC200F1077208F001F007E62D0800FE308312EB
:100BD2000313C60046088316031386058312031304
:100BE20006148316031388010A128A117D240A123D
:100BF2008A110B300A128A1110270A128A118312E3
:100C02000313C901CA01C901CA014A08803AFF0097
:100C120080307F02031D0F2E02304902031C122E68
:100C2200132E152E4B2E4B2E831203130610063055
:100C3200C8001330C700B130C600C60B1E2EC70B4A
:100C42001E2EC80B1E2E252E8312031306140630E9
:100C5200C8001330C700B130C600C60B2E2EC70B1A
:100C62002E2EC80B2E2E352E013083120313C907E8
:100C72000318CA0A0030CA074A08803AFF008030C7
:100C82007F02031D462E02304902031C492E4A2EC2
:100C9200152E4B2E0A128A11C7240A128A11512EBE
:100CA2000A128A1100280330F0000030F10078089F
:100CB200F301F3077708F201F2070A128A1181257C
:100CC2000A128A117108F801F8077008F701F7078C
:100CD200F908031D6D2E6E2EBB2E78087704031DB6
:100CE200732E742E862E8312031308110813881193
:100CF20088120816081A7E2E822E83120313881772
:100D0200852E8312031388130F2F01307706780480
:100D1200031D8C2E8D2E9F2E83120313081208138F
:100D22008811881308150819972E9B2E8312031316
:100D320088169E2E8312031388120F2F0230770615
:100D42007804031DA52EA62E0F2F8312031308115C
:100D52000812881288130817081BB02EB42E8312AB
:100D620003138815B72E8312031388110F2F0F2F29
:100D72000F2F0F2F7908013A031DC02EC12E0F2FFE
:100D820078087704031DC62EC72ED92E83120313AB
:100D9200861288100612861006150619D12ED52E37
:100DA200831203130814D82E8312031308100F2F73
:100DB200013077067804031DDF2EE02EF22E831217
:100DC200031306118810061208108616861AEA2ED8
:100DD200EE2E831203138614F12E83120313861050
:100DE2000F2F023077067804031DF82EF92E0F2FED
:100DF20083120313861206118610081088148818AD
:100E0200032F072F8312031306160A2F83120313CD
:100E120006120F2F0F2F0F2F0F2F0F2F08008312E5
:100E22000313BF003830BA003A08BD00E92F450865
:100E3200253A03191D2F1E2F252F45080A128A1144
:100E420071240A128A11E92FBE012C2FFF2F412F84
:100E5200412FE92F412F0130BF07FF303F078400A8
:100E62000A128A1103200A128A11C500003A0319D4
:100E7200FF2F643A0319412F0D3A0319412FE92F2D
:100E82003D08840083130008C100840A0008C200E0
:100E92000230BA003A08BD07C21F502F512F5B2FF4
:100EA2000330BA003A08BE04C109C209C10A0319D3
:100EB200C20A5B2FC5010314C50D4508053A031D7F
:100EC200632F642F662F8E2F8E2F4508BA003A07A4
:100ED200013E84000A128A1103200A128A11BB0001
:100EE2000A128A1103200A128A11BC003C0842022B
:100EF200031D7D2F3B0841020318802F812F832F72
:100F02008E2F8E2F0130BA003A08C5074508053AE0
:100F1200031D8C2F8D2F662F8E2F3E080339031948
:100F2200932F942F9B2F2D300A128A1171240A12AB
:100F32008A119B2F831203134508BA003A08C00096
:100F4200DB2F0A30F8000030F9004008BA003A07F7
:100F5200013E84000A128A1103200A128A11F0004B
:100F62000A128A1103200A128A11F1004208F301BF
:100F7200F3074108F201F2070A128A1133250A1215
:100F82008A117108FB01FB077008FA01FA070A12BD
:100F92008A11EF240A128A117808303E8312031351
:100FA200BB003B08C50045080A128A1171240A12C7
:100FB2008A11DB2FFF3083120313BA003A08C007ED
:100FC2004008FF3A031DE62FE72FA22FE92FE92F52
:100FD200013083120313BF07FF303F0784000A1258
:100FE2008A1103200A128A11BA003A08C500C508FC
:0E0FF200031DFC2FFD2F182FFF2FFF2F0800CF
:02400E00B9F700
:00000001FF
